{
  "_format": "hh-sol-artifact-1",
  "contractName": "DAOSpokeContract",
  "sourceName": "contracts/governance/DAOSpokeContract.sol",
  "abi": [
    {
      "inputs": [
        {
          "internalType": "bytes32",
          "name": "_hubContractAddress",
          "type": "bytes32"
        },
        {
          "internalType": "uint16",
          "name": "_hubContractChainId",
          "type": "uint16"
        },
        {
          "internalType": "contract IVotes",
          "name": "_token",
          "type": "address"
        },
        {
          "internalType": "uint256",
          "name": "_targetSecondsPerBlock",
          "type": "uint256"
        },
        {
          "internalType": "uint16",
          "name": "_chainId",
          "type": "uint16"
        },
        {
          "internalType": "address",
          "name": "_wormholeRelayerAddress",
          "type": "address"
        },
        {
          "internalType": "address",
          "name": "_magistrateAddress",
          "type": "address"
        }
      ],
      "stateMutability": "nonpayable",
      "type": "constructor"
    },
    {
      "inputs": [
        {
          "internalType": "address",
          "name": "account",
          "type": "address"
        }
      ],
      "name": "AddressInsufficientBalance",
      "type": "error"
    },
    {
      "inputs": [],
      "name": "FailedInnerCall",
      "type": "error"
    },
    {
      "anonymous": false,
      "inputs": [
        {
          "indexed": true,
          "internalType": "address",
          "name": "previousMagistrate",
          "type": "address"
        },
        {
          "indexed": true,
          "internalType": "address",
          "name": "newMagistrate",
          "type": "address"
        }
      ],
      "name": "MagistrateChanged",
      "type": "event"
    },
    {
      "anonymous": false,
      "inputs": [
        {
          "indexed": true,
          "internalType": "address",
          "name": "voter",
          "type": "address"
        },
        {
          "indexed": false,
          "internalType": "uint256",
          "name": "proposalId",
          "type": "uint256"
        },
        {
          "indexed": false,
          "internalType": "uint8",
          "name": "support",
          "type": "uint8"
        },
        {
          "indexed": false,
          "internalType": "uint256",
          "name": "weight",
          "type": "uint256"
        },
        {
          "indexed": false,
          "internalType": "string",
          "name": "reason",
          "type": "string"
        }
      ],
      "name": "VoteCast",
      "type": "event"
    },
    {
      "inputs": [
        {
          "internalType": "uint256",
          "name": "proposalId",
          "type": "uint256"
        },
        {
          "internalType": "uint8",
          "name": "support",
          "type": "uint8"
        }
      ],
      "name": "castVote",
      "outputs": [
        {
          "internalType": "uint256",
          "name": "",
          "type": "uint256"
        }
      ],
      "stateMutability": "nonpayable",
      "type": "function"
    },
    {
      "inputs": [],
      "name": "chainId",
      "outputs": [
        {
          "internalType": "uint16",
          "name": "",
          "type": "uint16"
        }
      ],
      "stateMutability": "view",
      "type": "function"
    },
    {
      "inputs": [
        {
          "internalType": "uint256",
          "name": "proposalId",
          "type": "uint256"
        },
        {
          "internalType": "address",
          "name": "account",
          "type": "address"
        }
      ],
      "name": "hasVoted",
      "outputs": [
        {
          "internalType": "bool",
          "name": "",
          "type": "bool"
        }
      ],
      "stateMutability": "view",
      "type": "function"
    },
    {
      "inputs": [],
      "name": "hubContractAddress",
      "outputs": [
        {
          "internalType": "bytes32",
          "name": "",
          "type": "bytes32"
        }
      ],
      "stateMutability": "view",
      "type": "function"
    },
    {
      "inputs": [],
      "name": "hubContractChainId",
      "outputs": [
        {
          "internalType": "uint16",
          "name": "",
          "type": "uint16"
        }
      ],
      "stateMutability": "view",
      "type": "function"
    },
    {
      "inputs": [
        {
          "internalType": "uint256",
          "name": "proposalId",
          "type": "uint256"
        }
      ],
      "name": "isProposal",
      "outputs": [
        {
          "internalType": "bool",
          "name": "",
          "type": "bool"
        }
      ],
      "stateMutability": "view",
      "type": "function"
    },
    {
      "inputs": [],
      "name": "magistrate",
      "outputs": [
        {
          "internalType": "address",
          "name": "",
          "type": "address"
        }
      ],
      "stateMutability": "view",
      "type": "function"
    },
    {
      "inputs": [
        {
          "internalType": "bytes32",
          "name": "",
          "type": "bytes32"
        }
      ],
      "name": "processedMessages",
      "outputs": [
        {
          "internalType": "bool",
          "name": "",
          "type": "bool"
        }
      ],
      "stateMutability": "view",
      "type": "function"
    },
    {
      "inputs": [
        {
          "internalType": "uint256",
          "name": "",
          "type": "uint256"
        }
      ],
      "name": "proposalVotes",
      "outputs": [
        {
          "internalType": "uint256",
          "name": "againstVotes",
          "type": "uint256"
        },
        {
          "internalType": "uint256",
          "name": "forVotes",
          "type": "uint256"
        },
        {
          "internalType": "uint256",
          "name": "abstainVotes",
          "type": "uint256"
        }
      ],
      "stateMutability": "view",
      "type": "function"
    },
    {
      "inputs": [
        {
          "internalType": "uint256",
          "name": "",
          "type": "uint256"
        }
      ],
      "name": "proposals",
      "outputs": [
        {
          "internalType": "uint256",
          "name": "proposalCreation",
          "type": "uint256"
        },
        {
          "internalType": "uint256",
          "name": "localVoteStart",
          "type": "uint256"
        },
        {
          "internalType": "uint256",
          "name": "localVoteEnd",
          "type": "uint256"
        },
        {
          "internalType": "uint256",
          "name": "localVoteStartBlock",
          "type": "uint256"
        },
        {
          "internalType": "bool",
          "name": "voteFinished",
          "type": "bool"
        }
      ],
      "stateMutability": "view",
      "type": "function"
    },
    {
      "inputs": [
        {
          "internalType": "bytes",
          "name": "payload",
          "type": "bytes"
        },
        {
          "internalType": "bytes[]",
          "name": "",
          "type": "bytes[]"
        },
        {
          "internalType": "bytes32",
          "name": "sourceAddress",
          "type": "bytes32"
        },
        {
          "internalType": "uint16",
          "name": "sourceChain",
          "type": "uint16"
        },
        {
          "internalType": "bytes32",
          "name": "deliveryHash",
          "type": "bytes32"
        }
      ],
      "name": "receiveWormholeMessages",
      "outputs": [],
      "stateMutability": "payable",
      "type": "function"
    },
    {
      "inputs": [
        {
          "internalType": "uint256",
          "name": "proposalId",
          "type": "uint256"
        }
      ],
      "name": "sendVoteResultToHub",
      "outputs": [],
      "stateMutability": "payable",
      "type": "function"
    },
    {
      "inputs": [],
      "name": "targetSecondsPerBlock",
      "outputs": [
        {
          "internalType": "uint256",
          "name": "",
          "type": "uint256"
        }
      ],
      "stateMutability": "view",
      "type": "function"
    },
    {
      "inputs": [],
      "name": "token",
      "outputs": [
        {
          "internalType": "contract IVotes",
          "name": "",
          "type": "address"
        }
      ],
      "stateMutability": "view",
      "type": "function"
    },
    {
      "inputs": [
        {
          "internalType": "address",
          "name": "newMagistrate",
          "type": "address"
        }
      ],
      "name": "transferMagistrate",
      "outputs": [],
      "stateMutability": "nonpayable",
      "type": "function"
    },
    {
      "inputs": [],
      "name": "withdrawFunds",
      "outputs": [],
      "stateMutability": "nonpayable",
      "type": "function"
    },
    {
      "inputs": [],
      "name": "wormholeRelayer",
      "outputs": [
        {
          "internalType": "contract IWormholeRelayer",
          "name": "",
          "type": "address"
        }
      ],
      "stateMutability": "view",
      "type": "function"
    }
  ],
  "bytecode": "0x610140346200018457601f6200178938819003918201601f19168301916001600160401b03831184841017620001895780849260e0946040528339810103126200018457805162000053602083016200019f565b6040830151916001600160a01b0391908284168403620001845760608501519262000081608087016200019f565b936200009e60c06200009660a08a01620001af565b9801620001af565b958260005497168060018060a01b03198916176000558360405198167fb4aa40c4569b1278aa7da5bab0f345910781d388f8257b0bec17a317e2efb6b5600080a360c05260e0526101209384526101009516855260805260a0526115c49283620001c584396080518381816103cf015281816109680152610e85015260a0518381816103f10152818161092c01528181611047015261110c015260c0518381816107b90152610a0e015260e051838181610242015281816113c10152611401015251828181610468015281816109a101528181610e5701526112f6015251816108ed0152f35b600080fd5b634e487b7160e01b600052604160045260246000fd5b519061ffff821682036200018457565b51906001600160a01b0382168203620001845756fe6080604052600436101561001257600080fd5b60003560e01c8063013cf08b1461012757806324600fc31461012257806332d0c46d1461011d57806334feb318146101185780633ba2459414610113578063438596321461010e57806345e6efa114610109578063529dca3214610104578063544ffc9c146100ff57806356781388146100fa57806388ba16ab146100f55780639a8a0592146100f0578063b0f6b697146100eb578063d8c71a92146100e6578063da25b725146100e1578063e1171999146100dc5763fc0c546a146100d757600080fd5b6109f8565b6109d0565b61098b565b610950565b610911565b6108d2565b6108a1565b610716565b6106d3565b61060d565b61050a565b6104c3565b610345565b610276565b61022a565b61019e565b61013c565b6000526001602052604060002090565b3461019957602036600319011261019957600435600052600160205260a06040600020805490600181015490600281015460ff60046003840154930154169260405194855260208501526040840152606083015215156080820152f35b600080fd5b3461019957600080600319360112610227576101b861125c565b4780471061020f578180808093335af13d1561020a573d6101d881610590565b906101e66040519283610549565b81528260203d92013e5b156101f85780f35b604051630a12f52160e11b8152600490fd5b6101f0565b60405163cd78605960e01b8152306004820152602490fd5b80fd5b346101995760003660031901126101995760206040517f00000000000000000000000000000000000000000000000000000000000000008152f35b6001600160a01b0381160361019957565b346101995760203660031901126101995760043561029381610265565b61029b61125c565b6001600160a01b0390811680156102e957600080546001600160a01b03198116831782559092167fb4aa40c4569b1278aa7da5bab0f345910781d388f8257b0bec17a317e2efb6b58380a380f35b60405162461bcd60e51b815260206004820152602e60248201527f4d6167697374726174653a206e6577206d61676973747261746520697320746860448201526d65207a65726f206164647265737360901b6064820152608490fd5b602080600319360112610199576104648161042260043561036461125c565b61038261037d60046103758461012c565b015460ff1690565b610a3d565b610396816000526002602052604060002090565b906103b66001830154926002815491015490604051948594888601610a98565b03906103ca601f1992838101835282610549565b61042e7f0000000000000000000000000000000000000000000000000000000000000000927f0000000000000000000000000000000000000000000000000000000000000000926040519586913386888b8601610b03565b03908101855284610549565b610437816112c6565b6040516312d729bd60e21b81529586946001600160a01b0394869485939291871691828260048701610b54565b03927f0000000000000000000000000000000000000000000000000000000000000000165af180156104be5761049657005b816104b592903d106104b7575b6104ad8183610549565b810190610b35565b005b503d6104a3565b610ba3565b3461019957604036600319011261019957602060ff6104fe6024356104e781610265565b600435600052600284526003604060002001610baf565b54166040519015158152f35b34610199576000366003190112610199576000546040516001600160a01b039091168152602090f35b634e487b7160e01b600052604160045260246000fd5b601f909101601f19168101906001600160401b0382119082101761056c57604052565b610533565b6040519060a082016001600160401b0381118382101761056c57604052565b6001600160401b03811161056c57601f01601f191660200190565b81601f82011215610199578035906105c282610590565b926105d06040519485610549565b8284526020838301011161019957816000926020809301838601378301015290565b61ffff81160361019957565b6064359061060b826105f2565b565b60a0366003190112610199576001600160401b03600435818111610199576106399036906004016105ab565b602480359083821161019957366023830112156101995781600401359380851161056c578460051b906024602080976040519061067883870183610549565b81520192850101933685116101995760248101925b8584106106ad576104b5876106a06105fe565b6084359160443590610e3d565b83358381116101995788916106c883928836918701016105ab565b81520193019261068d565b3461019957602036600319011261019957600435600052600260205260606040600020805490600260018201549101549060405192835260208301526040820152f35b346101995760403660031901126101995760043560243560ff81168103610199578160206107466107b59461012c565b61075761075284611246565b611133565b61077461076f61076b600484015460ff1690565b1590565b61118b565b61078e600182015491824210159081610893575b506111d7565b604051630748d63560e31b8152336004820152602481019190915293849081906044820190565b03817f00000000000000000000000000000000000000000000000000000000000000006001600160a01b03165afa9182156104be5761084e93600093610852575b5082816108148260008051602061156f83398151915294338761148a565b6040805194855260ff919091166020850152830152608060608301819052600090830152339160a090a26040519081529081906020820190565b0390f35b60008051602061156f8339815191529193506108859060203d60201161088c575b61087d8183610549565b810190611237565b92906107f6565b503d610873565b600291500154421038610788565b34610199576020366003190112610199576004356000526003602052602060ff604060002054166040519015158152f35b3461019957600036600319011261019957602060405161ffff7f0000000000000000000000000000000000000000000000000000000000000000168152f35b3461019957600036600319011261019957602060405161ffff7f0000000000000000000000000000000000000000000000000000000000000000168152f35b346101995760003660031901126101995760206040517f00000000000000000000000000000000000000000000000000000000000000008152f35b34610199576000366003190112610199576040517f00000000000000000000000000000000000000000000000000000000000000006001600160a01b03168152602090f35b346101995760203660031901126101995760206109ee600435611246565b6040519015158152f35b34610199576000366003190112610199576040517f00000000000000000000000000000000000000000000000000000000000000006001600160a01b03168152602090f35b15610a4457565b60405162461bcd60e51b815260206004820152602660248201527f44414f53706f6b65436f6e74726163743a20766f7465206973206e6f742066696044820152651b9a5cda195960d21b6064820152608490fd5b9094939260809260a0830196600084526020840152604083015260608201520152565b60005b838110610ace5750506000910152565b8181015183820152602001610abe565b90602091610af781518092818552858086019101610abb565b601f01601f1916010190565b909261ffff608093610b329695845216602083015260018060a01b031660408201528160608201520190610ade565b90565b9081602091031261019957516001600160401b03811681036101995790565b93959490610b8660c09461ffff809316875260018060a01b03809516602088015260e0604088015260e0870190610ade565b96600060608701526207a12060808701521660a085015216910152565b6040513d6000823e3d90fd5b9060018060a01b0316600052602052604060002090565b15610bcd57565b60405162461bcd60e51b815260206004820152601460248201527313db9b1e481c995b185e595c88185b1b1bddd95960621b6044820152606490fd5b15610c1057565b60405162461bcd60e51b815260206004820152603460248201527f4f6e6c79206d657373616765732066726f6d207468652068756220636f6e74726044820152736163742063616e2062652072656365697665642160601b6064820152608490fd5b15610c7957565b60405162461bcd60e51b815260206004820152601960248201527813595cdcd859d948185b1c9958591e481c1c9bd8d95cdcd959603a1b6044820152606490fd5b608081830312610199578051610ccf81610265565b926020820151610cde816105f2565b926040830151610ced81610265565b606084015190936001600160401b038211610199570181601f82011215610199578051610d1981610590565b92610d276040519485610549565b8184526020828401011161019957610b329160208085019101610abb565b15610d4c57565b60405162461bcd60e51b815260206004820152602a60248201527f4d657373616765206973206e6f742061646472657373656420666f72207468696044820152691cc818dbdb9d1c9858dd60b21b6064820152608490fd5b91908260409103126101995760208251610dbd816105f2565b92015190565b908160a0910312610199578051610dd9816105f2565b916020820151916040810151916080606083015192015190565b15610dfa57565b60405162461bcd60e51b815260206004820152601b60248201527a283937b837b9b0b61024a21036bab9ba103132903ab734b8bab29760291b6044820152606490fd5b92610f019192610f1e610f1160018060a01b0393610eb4857f00000000000000000000000000000000000000000000000000000000000000001694610e83863314610bc6565b7f00000000000000000000000000000000000000000000000000000000000000009889149081611101575b50610c09565b610edd610ed861076b610ed1846000526003602052604060002090565b5460ff1690565b610c72565b610ef2885198602080809b8301019101610cba565b98929150508630911614610d45565b6000526003602052604060002090565b805460ff19166001179055565b8483019361ffff8551168015600014610fce5750505050610f4c839261060b9483610f939451010190610dc3565b9195929350610f65610f6061076b86611246565b610df3565b610f6e816113a9565b92610f77610571565b968752860152604085015260608401526000608084015261012c565b60046080918351815560208401516001820155604084015160028201556060840151600382015501910151151560ff80198354169116179055565b929492600114610fe1575b505050505050565b6110cb94610ff9611079948887819851010190610da4565b919050611010826000526002602052604060002090565b92611085600185015461103260028754970154604051978893888d8601610a98565b03611045601f1991828101885287610549565b7f0000000000000000000000000000000000000000000000000000000000000000956040519889918b898733928601610b03565b03908101885287610549565b6110aa600461109c611096876112c6565b9561012c565b01805460ff19166001179055565b1693604051968795869485936312d729bd60e21b8552828260048701610b54565b03925af180156104be576110e3575b80808080610fd9565b816110f992903d106104b7576104ad8183610549565b5038806110da565b905061ffff809116907f0000000000000000000000000000000000000000000000000000000000000000161438610eae565b1561113a57565b60405162461bcd60e51b8152602060048201526024808201527f44414f53706f6b65436f6e74726163743a206e6f742061207374617274656420604482015263766f746560e01b6064820152608490fd5b1561119257565b60405162461bcd60e51b815260206004820152601f60248201527f44414f53706f6b65436f6e74726163743a20766f74652066696e6973686564006044820152606490fd5b156111de57565b60405162461bcd60e51b815260206004820152602b60248201527f44414f53706f6b65436f6e74726163743a20766f7465206e6f7420637572726560448201526a6e746c792061637469766560a81b6064820152608490fd5b90816020910312610199575190565b6000526001602052600160406000200154151590565b6000546001600160a01b0316330361127057565b60405162461bcd60e51b815260206004820152602860248201527f4d6167697374726174653a2063616c6c6572206973206e6f7420746865206d61604482015267676973747261746560c01b6064820152608490fd5b6040805163c23ee3c360e01b815261ffff929092166004830152600060248301526207a1206044830152816064817f00000000000000000000000000000000000000000000000000000000000000006001600160a01b03165afa9081156104be57600091611332575090565b90506040813d604011611359575b8161134d60409383610549565b81010312610199575190565b3d9150611340565b634e487b7160e01b600052601160045260246000fd5b8115611381570490565b634e487b7160e01b600052601260045260246000fd5b919082018092116113a457565b611361565b428111156113f2574281039081116113a4576113e6907f000000000000000000000000000000000000000000000000000000000000000090611377565b43018043116113a45790565b42034281116113a457611426907f000000000000000000000000000000000000000000000000000000000000000090611377565b43034381116113a45790565b1561143957565b60405162461bcd60e51b815260206004820152602360248201527f44414f53706f6b65436f6e74726163743a20766f746520616c72656164792063604482015262185cdd60ea1b6064820152608490fd5b916114ca610f116114a860ff94956000526002602052604060002090565b94600386016114c56114c061076b610ed18585610baf565b611432565b610baf565b16806114e15750906114dd908254611397565b9055565b600181036114f9575060016114dd9101918254611397565b60020361150f5760026114dd9101918254611397565b60405162461bcd60e51b815260206004820152603160248201527f44414f53706f6b65436f6e74726163743a20696e76616c69642076616c756520604482015270666f7220656e756d20566f74655479706560781b6064820152608490fdfeb8e138887d0aa13bab447e82de9d5c1777041ecd21ca36ba824ff1e6c07ddda4a2646970667358221220e57e67f0be15f31316910ef9c246bb51d1e8e7890067182f0b67eb5da0e6537964736f6c63430008170033",
  "linkReferences": {},
  "deployedLinkReferences": {}
}